{
  "contractName": "Crowdsale",
  "abi": [
    {
      "inputs": [
        {
          "internalType": "bool",
          "name": "_isRunning",
          "type": "bool"
        },
        {
          "internalType": "uint256",
          "name": "_tokenRate",
          "type": "uint256"
        },
        {
          "internalType": "address",
          "name": "_tokenAddress",
          "type": "address"
        },
        {
          "internalType": "uint256",
          "name": "_fundingGoal",
          "type": "uint256"
        }
      ],
      "payable": false,
      "stateMutability": "nonpayable",
      "type": "constructor"
    },
    {
      "payable": true,
      "stateMutability": "payable",
      "type": "fallback"
    },
    {
      "constant": true,
      "inputs": [],
      "name": "fundingGoal",
      "outputs": [
        {
          "internalType": "uint256",
          "name": "",
          "type": "uint256"
        }
      ],
      "payable": false,
      "stateMutability": "view",
      "type": "function"
    },
    {
      "constant": true,
      "inputs": [],
      "name": "isCompleted",
      "outputs": [
        {
          "internalType": "bool",
          "name": "",
          "type": "bool"
        }
      ],
      "payable": false,
      "stateMutability": "view",
      "type": "function"
    },
    {
      "constant": true,
      "inputs": [],
      "name": "isIcoBonusRunning",
      "outputs": [
        {
          "internalType": "bool",
          "name": "",
          "type": "bool"
        }
      ],
      "payable": false,
      "stateMutability": "view",
      "type": "function"
    },
    {
      "constant": true,
      "inputs": [],
      "name": "isIcoRunning",
      "outputs": [
        {
          "internalType": "bool",
          "name": "",
          "type": "bool"
        }
      ],
      "payable": false,
      "stateMutability": "view",
      "type": "function"
    },
    {
      "constant": true,
      "inputs": [],
      "name": "owner",
      "outputs": [
        {
          "internalType": "address payable",
          "name": "",
          "type": "address"
        }
      ],
      "payable": false,
      "stateMutability": "view",
      "type": "function"
    },
    {
      "constant": true,
      "inputs": [],
      "name": "tokenAddress",
      "outputs": [
        {
          "internalType": "address",
          "name": "",
          "type": "address"
        }
      ],
      "payable": false,
      "stateMutability": "view",
      "type": "function"
    },
    {
      "constant": true,
      "inputs": [],
      "name": "tokenRate",
      "outputs": [
        {
          "internalType": "uint256",
          "name": "",
          "type": "uint256"
        }
      ],
      "payable": false,
      "stateMutability": "view",
      "type": "function"
    },
    {
      "constant": false,
      "inputs": [],
      "name": "buy",
      "outputs": [],
      "payable": true,
      "stateMutability": "payable",
      "type": "function"
    },
    {
      "constant": false,
      "inputs": [],
      "name": "sell",
      "outputs": [],
      "payable": true,
      "stateMutability": "payable",
      "type": "function"
    },
    {
      "constant": false,
      "inputs": [],
      "name": "extractEther",
      "outputs": [],
      "payable": false,
      "stateMutability": "nonpayable",
      "type": "function"
    }
  ],
  "bytecode": "0x608060405234801561001057600080fd5b5060405161064a38038061064a8339818101604052608081101561003357600080fd5b810190808051906020019092919080519060200190929190805190602001909291908051906020019092919050505060011515841515148015610077575060008314155b80156100b05750600073ffffffffffffffffffffffffffffffffffffffff168273ffffffffffffffffffffffffffffffffffffffff1614155b80156100bd575060008114155b610112576040517f08c379a00000000000000000000000000000000000000000000000000000000081526004018080602001828103825260288152602001806106226028913960400191505060405180910390fd5b8260018190555081600260006101000a81548173ffffffffffffffffffffffffffffffffffffffff021916908373ffffffffffffffffffffffffffffffffffffffff1602179055508060038190555033600460006101000a81548173ffffffffffffffffffffffffffffffffffffffff021916908373ffffffffffffffffffffffffffffffffffffffff1602179055505050505061046d806101b56000396000f3fe6080604052600436106100915760003560e01c80639258d5a3116100595780639258d5a3146101815780639d76ea58146101b05780639fee597b14610207578063a6f2ae3a1461021e578063fa391c641461022857610091565b8063317118841461009b57806345710074146100c65780636cd9ead2146100d05780637a3a0e84146100ff5780638da5cb5b1461012a575b610099610257565b005b3480156100a757600080fd5b506100b0610276565b6040518082815260200191505060405180910390f35b6100ce61027c565b005b3480156100dc57600080fd5b506100e56102b1565b604051808215151515815260200191505060405180910390f35b34801561010b57600080fd5b506101146102c4565b6040518082815260200191505060405180910390f35b34801561013657600080fd5b5061013f6102ca565b604051808273ffffffffffffffffffffffffffffffffffffffff1673ffffffffffffffffffffffffffffffffffffffff16815260200191505060405180910390f35b34801561018d57600080fd5b506101966102f0565b604051808215151515815260200191505060405180910390f35b3480156101bc57600080fd5b506101c5610303565b604051808273ffffffffffffffffffffffffffffffffffffffff1673ffffffffffffffffffffffffffffffffffffffff16815260200191505060405180910390f35b34801561021357600080fd5b5061021c610329565b005b610226610257565b005b34801561023457600080fd5b5061023d6103ff565b604051808215151515815260200191505060405180910390f35b6000600154670de0b6b3a76400008034028161026f57fe5b0402905050565b60015481565b6000600a90506000670de0b6b3a7640000600154670de0b6b3a76400008402816102a257fe5b04816102aa57fe5b0490505050565b600060029054906101000a900460ff1681565b60035481565b600460009054906101000a900473ffffffffffffffffffffffffffffffffffffffff1681565b600060019054906101000a900460ff1681565b600260009054906101000a900473ffffffffffffffffffffffffffffffffffffffff1681565b600115156000809054906101000a900460ff16151514610394576040517f08c379a00000000000000000000000000000000000000000000000000000000081526004018080602001828103825260278152602001806104126027913960400191505060405180910390fd5b600460009054906101000a900473ffffffffffffffffffffffffffffffffffffffff1673ffffffffffffffffffffffffffffffffffffffff166108fc479081150290604051600060405180830381858888f193505050501580156103fc573d6000803e3d6000fd5b50565b6000809054906101000a900460ff168156fe5b43524f574453414c455d3a3a43524f574453414c455f49535f4e4f545f434f4d504c45544544a265627a7a72315820b91906c99fb1966b9822d64394ff2c795e53f10c3fe84c245fb84eb0d2f1c6c364736f6c634300051000325b43524f574453414c455d3a3a594f555f484156455f4953535545535f574954485f504152414d53",
  "source": "pragma solidity ^0.5.0;\r\n\r\ncontract Crowdsale {\r\n     // State variables\r\n    bool public isCompleted;\r\n    bool public isIcoRunning;\r\n    bool public isIcoBonusRunning;\r\n    //uint256 public icoStartTime;\r\n    //uint256 public icoEndTime;\r\n    uint256 public tokenRate;\r\n    address public tokenAddress;\r\n    uint256 public fundingGoal;\r\n    address payable public owner;\r\n\r\n    /**\r\n    * @dev To keep things organized I added a function to distrubute the ether\r\n    *       after the ICO is completed with the modifier and adds an extra layer\r\n    *       of security\r\n    */\r\n    modifier whenIcoCompleted {\r\n        require(isCompleted == true, '[CROWDSALE]::CROWDSALE_IS_NOT_COMPLETED');\r\n        _;\r\n    }\r\n\r\n    modifier onlyOwner {\r\n        require(msg.sender == owner, '[CROWDSALE]::YOUR_NOT_THE_OWNER');\r\n        _;\r\n    }\r\n\r\n     /**\r\n    * @dev fallback buy function\r\n    */\r\n    function () external payable {\r\n        buy();\r\n    }\r\n\r\n\r\n    // Constructor - Runs once on deploy\r\n    constructor (\r\n        bool _isRunning,\r\n        uint256 _tokenRate,\r\n        address _tokenAddress,\r\n        uint256 _fundingGoal\r\n    ) public {\r\n        require(_isRunning == true &&\r\n                _tokenRate != 0 &&\r\n                _tokenAddress != address(0) &&\r\n                _fundingGoal != 0, '[CROWDSALE]::YOU_HAVE_ISSUES_WITH_PARAMS');\r\n\r\n        //icoStartTime = _icoStart;\r\n        //icoEndTime = _icoEnd;\r\n        tokenRate = _tokenRate;\r\n        tokenAddress = _tokenAddress;\r\n        fundingGoal = _fundingGoal;\r\n        owner = msg.sender;\r\n    }\r\n\r\n    /**\r\n    * @dev buy function\r\n    *  1 Full ETH = 1e18 Pieces of ETH or Wei\r\n    *  1 Full token = 1 Full ETH * 1e18 Pieces of Token / 1e18 Wei\r\n    */\r\n    function buy() public payable {\r\n        uint256 tokensToBuy;\r\n        tokensToBuy = msg.value * 1e18 / 1 ether * tokenRate;\r\n\r\n        \r\n    }\r\n\r\n    //1 Full ETH = 1 Token * 1e18 Wei / 1e5 Pieces of token / TokenRate\r\n    function sell() public payable {\r\n        uint256 tokensToConvert = 10; // Sample tokens\r\n        uint256 weiFromTokens;\r\n        weiFromTokens = tokensToConvert * 1 ether / tokenRate / 1e18;\r\n    }\r\n\r\n    /**\r\n    * @dev extract the ether after the ICO is completed\r\n    */\r\n    function extractEther() public whenIcoCompleted {\r\n        owner.transfer(address(this).balance);\r\n    }\r\n}",
  "sourcePath": "C:\\Projects\\US Forestry\\eth_swap\\src\\contracts\\Crowdsale.sol",
  "compiler": {
    "name": "solc",
    "version": "0.5.16+commit.9c3226ce.Emscripten.clang"
  },
  "schemaVersion": "3.0.23",
  "updatedAt": "2020-04-04T19:36:54.263Z",
  "networkType": "ethereum",
  "devdoc": {
    "methods": {
      "buy()": {
        "details": "buy function 1 Full ETH = 1e18 Pieces of ETH or Wei 1 Full token = 1 Full ETH * 1e18 Pieces of Token / 1e18 Wei"
      },
      "extractEther()": {
        "details": "extract the ether after the ICO is completed"
      }
    }
  },
  "userdoc": {
    "methods": {}
  }
}