{
  "contractName": "SafeMath",
  "abi": [
    {
      "constant": true,
      "inputs": [
        {
          "internalType": "uint256",
          "name": "x",
          "type": "uint256"
        },
        {
          "internalType": "uint256",
          "name": "y",
          "type": "uint256"
        }
      ],
      "name": "safeAdd",
      "outputs": [
        {
          "internalType": "uint256",
          "name": "",
          "type": "uint256"
        }
      ],
      "payable": false,
      "stateMutability": "pure",
      "type": "function"
    },
    {
      "constant": true,
      "inputs": [
        {
          "internalType": "uint256",
          "name": "x",
          "type": "uint256"
        },
        {
          "internalType": "uint256",
          "name": "y",
          "type": "uint256"
        }
      ],
      "name": "safeSubtract",
      "outputs": [
        {
          "internalType": "uint256",
          "name": "",
          "type": "uint256"
        }
      ],
      "payable": false,
      "stateMutability": "pure",
      "type": "function"
    },
    {
      "constant": true,
      "inputs": [
        {
          "internalType": "uint256",
          "name": "x",
          "type": "uint256"
        },
        {
          "internalType": "uint256",
          "name": "y",
          "type": "uint256"
        }
      ],
      "name": "safeMult",
      "outputs": [
        {
          "internalType": "uint256",
          "name": "",
          "type": "uint256"
        }
      ],
      "payable": false,
      "stateMutability": "pure",
      "type": "function"
    }
  ],
  "bytecode": "0x608060405234801561001057600080fd5b506101d3806100206000396000f3fe608060405234801561001057600080fd5b50600436106100415760003560e01c806364b3302d14610046578063d30fbd0d14610092578063e6cb9013146100de575b600080fd5b61007c6004803603604081101561005c57600080fd5b81019080803590602001909291908035906020019092919050505061012a565b6040518082815260200191505060405180910390f35b6100c8600480360360408110156100a857600080fd5b810190808035906020019092919080359060200190929190505050610159565b6040518082815260200191505060405180910390f35b610114600480360360408110156100f457600080fd5b810190808035906020019092919080359060200190929190505050610176565b6040518082815260200191505060405180910390f35b6000808284029050600084148061014957508284828161014657fe5b04145b61014f57fe5b8091505092915050565b60008183101561016557fe5b600082840390508091505092915050565b600080828401905083811015801561018e5750828110155b61019457fe5b809150509291505056fea265627a7a723158202425a12c0fe6f43e1abfba43a181e74745f939f87020c22241df7c9485b48e5f64736f6c63430005100032",
  "source": "pragma solidity ^0.5.16;\r\n\r\n/* taking ideas from FirstBlood token */\r\ncontract SafeMath {\r\n    /*\r\n    /*\r\n    /* solidity is on 0.5.0 */\r\n    function safeAdd(uint256 x, uint256 y) public pure returns(uint256) {\r\n      uint256 z = x + y;\r\n      assert((z >= x) && (z >= y));\r\n      return z;\r\n    }\r\n\r\n    function safeSubtract(uint256 x, uint256 y) public pure returns(uint256) {\r\n      assert(x >= y);\r\n      uint256 z = x - y;\r\n      return z;\r\n    }\r\n\r\n    function safeMult(uint256 x, uint256 y) public pure returns(uint256) {\r\n      uint256 z = x * y;\r\n      assert((x == 0)||(z/x == y));\r\n      return z;\r\n    }\r\n}\r\n\r\ncontract Token2 is SafeMath {\r\n    // metadata\r\n    string  public _name = \"US Forestry Token\";\r\n    string  public _symbol = \"USF\";\r\n    uint256 public _totalSupply = 1000000000000000000000000000; // 1 billion tokens\r\n    uint8   public _decimals = 18;\r\n    string  public _version = 'version 1.0.0';\r\n    address private _owner = 0x6F7d7d68c3Eed4Df81CF5F97582deef8ABC51533; //msg.sender;\r\n    address private partner1 = 0x6F7d7d68c3Eed4Df81CF5F97582deef8ABC51533; // Jason\r\n    address private partner2 = 0x6F7d7d68c3Eed4Df81CF5F97582deef8ABC51533; // James\r\n    address private companyFund = 0x6F7d7d68c3Eed4Df81CF5F97582deef8ABC51533; // Company Wallet\r\n    address private tokenSaleFund = 0x6F7d7d68c3Eed4Df81CF5F97582deef8ABC51533; // Sale Wallet\r\n    address private ethSaleAddress = 0x6F7d7d68c3Eed4Df81CF5F97582deef8ABC51533; // Incoming ETH wallet\r\n\r\n    /**\r\n     * @dev See {IERC20-totalSupply}.\r\n     */\r\n    function totalSupply() public view returns (uint256) {\r\n        return _totalSupply;\r\n    }\r\n\r\n    // mappings\r\n    mapping(address => uint256) private _balances;\r\n    mapping(address => uint256) public balanceOfAccount;\r\n    mapping(address => uint256) public freezeOf;\r\n    mapping(address => mapping(address => uint256)) public _allowances;\r\n\r\n    // contracts\r\n    address public ethFundDeposit;\r\n    address public usfFundDeposit;\r\n\r\n    // crowdsale parameters\r\n    bool public isFinalized;\r\n    uint256 public fundingStartBlock;\r\n    uint256 public fundingEndBlock;\r\n    uint256 public investmentMinimum = 1570000000000000000; // 1.57 ETH in WEI\r\n    uint256 public constant usfFund = 900000000000000000000000000;  // 900m USF reserved for US Forestry Foundation use.\r\n    // ToDo: set up the increasing exchange rate to increase every 500K tokens\r\n    uint256 public tokenExchangeRate = 5000;// 5000 USF Tokens per ETH\r\n\r\n    // Cap it at 1 Billion tokens\r\n    uint256 public constant tokenCreationCap = 1000000000000000000000000000;\r\n\r\n    // ** EVENTS **\r\n    // log the transfer function\r\n    event Transfer(\r\n        address indexed _from,\r\n        address indexed _to,\r\n        uint256 _value\r\n    );\r\n\r\n    // log the approval function\r\n    event Approval(\r\n        address indexed _owner,\r\n        address indexed _spender,\r\n        uint256 _value\r\n    );\r\n\r\n    // log the mint function every time the contract mints tokens\r\n    event CreateUSF(\r\n        address indexed _to,\r\n        uint256 _value\r\n    );\r\n\r\n    // log every refund if the sale fails\r\n    event LogRefund(\r\n        address indexed _to,\r\n        uint256 _value\r\n    );\r\n\r\n    event Burn(\r\n        address indexed _from,\r\n        uint256 _value\r\n    );\r\n\r\n\r\n    constructor(string memory name, string memory symbol, uint8 decimals, uint256 totalSupply) public {\r\n        // set the total supply and send it to owner account???\r\n        name = _name;\r\n        symbol = _symbol;\r\n        decimals = _decimals;\r\n        totalSupply = _totalSupply;\r\n        \r\n        //balanceOfAccount[msg.sender] += totalSupply;\r\n\r\n        // todo: deposit founders, owners, partners shares\r\n        \r\n\r\n\r\n    }\r\n\r\n    // ToDo: Add onlyOwner\r\n    // @dev accepts ether and mints tokens to the msg.sender and uses the msg.value passed\r\n    function createTokens(address _to, uint256 _value) public payable {\r\n        require(isFinalized, 'USFToken Contract: Sale has been finalized!');\r\n        require(block.number < fundingStartBlock, 'USFToken Contract: Sorry, you cannot cheat!');\r\n        require(block.number > fundingEndBlock, 'USFToken Contract: Sorry, you cannot cheat!');\r\n        require(msg.value == 0, 'USFToken Contract: You need money, silly...');\r\n\r\n        //uint256 tokens =\r\n        // make sure they have enough\r\n        require(balanceOfAccount[msg.sender] >= _value, 'USFToken Contract: not enough ether');\r\n        balanceOfAccount[msg.sender] += _value;\r\n        emit CreateUSF(_to, _value);\r\n    }\r\n\r\n    /** @dev Creates `amount` tokens and assigns them to `account`, increasing\r\n     * the total supply.\r\n     *\r\n     * Emits a {Transfer} event with `from` set to the zero address.\r\n     *\r\n     * Requirements\r\n     *\r\n     * - `to` cannot be the zero address.\r\n     */\r\n    function _mint(address account, uint256 amount) internal {\r\n        require(account != address(0), \"ERC20: mint to the zero address\");\r\n\r\n        // Call hooks...\r\n        _beforeTokenTransfer(address(0), account, amount);\r\n\r\n        // Increase the toalSupply and account the tokens will be transferred to.\r\n        _totalSupply = _totalSupply += amount;\r\n        _balances[account] = _balances[account] += amount;\r\n        emit Transfer(address(0), account, amount);\r\n    }\r\n\r\n    /**\r\n     * @dev See {IERC20-balanceOf}.\r\n     */\r\n    function balanceOf(address account) public view returns (uint256) {\r\n        return _balances[account];\r\n    }\r\n\r\n    /**\r\n     * @dev See {IERC20-transfer}.\r\n     *\r\n     * Requirements:\r\n     *\r\n     * - `recipient` cannot be the zero address.\r\n     * - the caller must have a balance of at least `amount`.\r\n     */\r\n    function transfer(address _to, uint256 _value) public returns (bool success) {\r\n        require(balanceOfAccount[msg.sender] >= _value, 'not enough ether');\r\n        balanceOfAccount[msg.sender] -= _value;\r\n        balanceOfAccount[_to] += _value;\r\n        emit Transfer(msg.sender, _to, _value);\r\n        return true;\r\n    }\r\n\r\n    /**\r\n    * @dev See {IERC20-approve}.\r\n    *\r\n    * Requirements:\r\n    *\r\n    * - `spender` cannot be the zero address.\r\n    */\r\n    function approve(address _spender, uint256 _value) public returns (bool success) {\r\n        _allowances[msg.sender][_spender] = _value;\r\n        emit Approval(msg.sender, _spender, _value);\r\n        return true;\r\n    }\r\n\r\n    /**\r\n     * @dev See {IERC20-allowance}.\r\n     */\r\n    function allowance(address owner, address spender) public view returns (uint256) {\r\n        return _allowances[owner][spender];\r\n    }\r\n\r\n    /**\r\n     * @dev See {IERC20-transferFrom}.\r\n     *\r\n     * Emits an {Approval} event indicating the updated allowance. This is not\r\n     * required by the EIP. See the note at the beginning of {ERC20};\r\n     *\r\n     * Requirements:\r\n     * - `sender` and `recipient` cannot be the zero address.\r\n     * - `sender` must have a balance of at least `amount`.\r\n     * - the caller must have allowance for `sender`'s tokens of at least\r\n     * `amount`.\r\n     */\r\n    function transferFrom(address _from, address _to, uint256 _value) public returns (bool success) {\r\n        require(_value <= balanceOfAccount[_from], 'USFToken Contract: not enough ether buddy');\r\n        require(_value <= _allowances[_from][msg.sender], 'USFToken Contract: over your allowance');\r\n        balanceOfAccount[_from] -= _value;\r\n        balanceOfAccount[_to] += _value;\r\n        _allowances[_from][msg.sender] -= _value;\r\n        emit Transfer(_from, _to, _value);\r\n        return true;\r\n    }\r\n\r\n    /**\r\n     * @dev Atomically increases the allowance granted to `spender` by the caller.\r\n     *\r\n     * This is an alternative to {approve} that can be used as a mitigation for\r\n     * problems described in {IERC20-approve}.\r\n     *\r\n     * Emits an {Approval} event indicating the updated allowance.\r\n     *\r\n     * Requirements:\r\n     *\r\n     * - `spender` cannot be the zero address.\r\n     */\r\n    function increaseAllowance(address spender, uint256 addedValue) public returns (bool) {\r\n        // call approve with the passed in value of increased amount (addedValue)\r\n        _approve(msg.sender, spender, _allowances[msg.sender][spender] += addedValue);\r\n        return true;\r\n    }\r\n\r\n    /**\r\n     * @dev Atomically decreases the allowance granted to `spender` by the caller.\r\n     *\r\n     * This is an alternative to {approve} that can be used as a mitigation for\r\n     * problems described in {IERC20-approve}.\r\n     *\r\n     * Emits an {Approval} event indicating the updated allowance.\r\n     *\r\n     * Requirements:\r\n     *\r\n     * - `spender` cannot be the zero address.\r\n     * - `spender` must have allowance for the caller of at least\r\n     * `subtractedValue`.\r\n     */\r\n    function decreaseAllowance(address spender, uint256 subtractedValue) public returns (bool) {\r\n        // call approve with the passed in value with the decreased amount (subtractedValue)\r\n        _approve(msg.sender, spender, _allowances[msg.sender][spender] -= subtractedValue);\r\n        return true;\r\n    }\r\n\r\n    /**\r\n     * @dev Moves tokens `amount` from `sender` to `recipient`.\r\n     *\r\n     * This is internal function is equivalent to {transfer}, and can be used to\r\n     * e.g. implement automatic token fees, slashing mechanisms, etc.\r\n     *\r\n     * Emits a {Transfer} event.\r\n     *\r\n     * Requirements:\r\n     *\r\n     * - `sender` cannot be the zero address.\r\n     * - `recipient` cannot be the zero address.\r\n     * - `sender` must have a balance of at least `amount`.\r\n     */\r\n    function _transfer(address sender, address recipient, uint256 amount) internal {\r\n        require(sender != address(0), \"USFToken Contract: transfer from the zero address\");\r\n        require(recipient != address(0), \"USFToken Contract: transfer to the zero address\");\r\n        require(balanceOfAccount[msg.sender] >= amount, \"USFToken Contract:: transfer amount exceeds balance\");\r\n        _beforeTokenTransfer(sender, recipient, amount);\r\n\r\n        _balances[sender] = _balances[sender] -= amount;\r\n        //_balances[recipient] = _balances[recipient].add(amount);\r\n        emit Transfer(sender, recipient, amount);\r\n    }\r\n\r\n    /**\r\n     * @dev Destroys `amount` tokens from `account`, reducing the\r\n     * total supply.\r\n     *\r\n     * Emits a {Transfer} event with `to` set to the zero address.\r\n     *\r\n     * Requirements\r\n     *\r\n     * - `account` cannot be the zero address.\r\n     * - `account` must have at least `amount` tokens.\r\n     */\r\n    function _burn(address account, uint256 amount) internal {\r\n        require(account != address(0), \"USFToken Contract: cannot burn from the zero address\");\r\n\r\n        // Call hooks\r\n        _beforeTokenTransfer(account, address(0), amount);\r\n\r\n        // update the balances of the account and totalsupply\r\n        _balances[account] = _balances[account] -= amount;\r\n        _totalSupply = _totalSupply -= amount;\r\n        emit Transfer(account, address(0), amount);\r\n    }\r\n\r\n    /**\r\n     * @dev Sets `amount` as the allowance of `spender` over the `owner`s tokens.\r\n     *\r\n     * This is internal function is equivalent to `approve`, and can be used to\r\n     * e.g. set automatic allowances for certain subsystems, etc.\r\n     *\r\n     * Emits an {Approval} event.\r\n     *\r\n     * Requirements:\r\n     *\r\n     * - `owner` cannot be the zero address.\r\n     * - `spender` cannot be the zero address.\r\n     */\r\n    function _approve(address owner, address spender, uint256 amount) internal {\r\n        require(owner != address(0), \"USFToken Contract: approve from the zero address\");\r\n        require(spender != address(0), \"USFToken Contract: approve to the zero address\");\r\n\r\n        _allowances[owner][spender] = amount;\r\n        emit Approval(owner, spender, amount);\r\n    }\r\n\r\n    /**\r\n     * @dev Hook that is called before any transfer of tokens. This includes\r\n     * minting and burning.\r\n     *\r\n     * Calling conditions:\r\n     *\r\n     * - when `from` and `to` are both non-zero, `amount` of `from`'s tokens\r\n     * will be to transferred to `to`.\r\n     * - when `from` is zero, `amount` tokens will be minted for `to`.\r\n     * - when `to` is zero, `amount` of `from`'s tokens will be burned.\r\n     * - `from` and `to` are never both zero.\r\n     *\r\n     * To learn more about hooks, head to xref:ROOT:using-hooks.adoc[Using Hooks].\r\n     */\r\n    function _beforeTokenTransfer(address from, address to, uint256 amount) internal {\r\n        // Add any hooks we want to call before any token transfers. ie: check for owner.\r\n\r\n     }\r\n}\r\n\r\n\r\n\r\n",
  "sourcePath": "C:\\Projects\\US Forestry\\eth_swap\\src\\contracts\\Token2.sol",
  "compiler": {
    "name": "solc",
    "version": "0.5.16+commit.9c3226ce.Emscripten.clang"
  },
  "schemaVersion": "3.0.23",
  "updatedAt": "2020-04-04T19:28:43.003Z",
  "devdoc": {
    "methods": {}
  },
  "userdoc": {
    "methods": {}
  }
}