{
  "contractName": "Token2",
  "abi": [
    {
      "inputs": [
        {
          "internalType": "string",
          "name": "name",
          "type": "string"
        },
        {
          "internalType": "string",
          "name": "symbol",
          "type": "string"
        },
        {
          "internalType": "uint8",
          "name": "decimals",
          "type": "uint8"
        },
        {
          "internalType": "uint256",
          "name": "totalSupply",
          "type": "uint256"
        }
      ],
      "payable": false,
      "stateMutability": "nonpayable",
      "type": "constructor"
    },
    {
      "anonymous": false,
      "inputs": [
        {
          "indexed": true,
          "internalType": "address",
          "name": "_owner",
          "type": "address"
        },
        {
          "indexed": true,
          "internalType": "address",
          "name": "_spender",
          "type": "address"
        },
        {
          "indexed": false,
          "internalType": "uint256",
          "name": "_value",
          "type": "uint256"
        }
      ],
      "name": "Approval",
      "type": "event"
    },
    {
      "anonymous": false,
      "inputs": [
        {
          "indexed": true,
          "internalType": "address",
          "name": "_from",
          "type": "address"
        },
        {
          "indexed": false,
          "internalType": "uint256",
          "name": "_value",
          "type": "uint256"
        }
      ],
      "name": "Burn",
      "type": "event"
    },
    {
      "anonymous": false,
      "inputs": [
        {
          "indexed": true,
          "internalType": "address",
          "name": "_to",
          "type": "address"
        },
        {
          "indexed": false,
          "internalType": "uint256",
          "name": "_value",
          "type": "uint256"
        }
      ],
      "name": "CreateUSF",
      "type": "event"
    },
    {
      "anonymous": false,
      "inputs": [
        {
          "indexed": true,
          "internalType": "address",
          "name": "_to",
          "type": "address"
        },
        {
          "indexed": false,
          "internalType": "uint256",
          "name": "_value",
          "type": "uint256"
        }
      ],
      "name": "LogRefund",
      "type": "event"
    },
    {
      "anonymous": false,
      "inputs": [
        {
          "indexed": true,
          "internalType": "address",
          "name": "_from",
          "type": "address"
        },
        {
          "indexed": true,
          "internalType": "address",
          "name": "_to",
          "type": "address"
        },
        {
          "indexed": false,
          "internalType": "uint256",
          "name": "_value",
          "type": "uint256"
        }
      ],
      "name": "Transfer",
      "type": "event"
    },
    {
      "constant": true,
      "inputs": [
        {
          "internalType": "address",
          "name": "",
          "type": "address"
        },
        {
          "internalType": "address",
          "name": "",
          "type": "address"
        }
      ],
      "name": "_allowances",
      "outputs": [
        {
          "internalType": "uint256",
          "name": "",
          "type": "uint256"
        }
      ],
      "payable": false,
      "stateMutability": "view",
      "type": "function"
    },
    {
      "constant": true,
      "inputs": [],
      "name": "_decimals",
      "outputs": [
        {
          "internalType": "uint8",
          "name": "",
          "type": "uint8"
        }
      ],
      "payable": false,
      "stateMutability": "view",
      "type": "function"
    },
    {
      "constant": true,
      "inputs": [],
      "name": "_name",
      "outputs": [
        {
          "internalType": "string",
          "name": "",
          "type": "string"
        }
      ],
      "payable": false,
      "stateMutability": "view",
      "type": "function"
    },
    {
      "constant": true,
      "inputs": [],
      "name": "_symbol",
      "outputs": [
        {
          "internalType": "string",
          "name": "",
          "type": "string"
        }
      ],
      "payable": false,
      "stateMutability": "view",
      "type": "function"
    },
    {
      "constant": true,
      "inputs": [],
      "name": "_totalSupply",
      "outputs": [
        {
          "internalType": "uint256",
          "name": "",
          "type": "uint256"
        }
      ],
      "payable": false,
      "stateMutability": "view",
      "type": "function"
    },
    {
      "constant": true,
      "inputs": [],
      "name": "_version",
      "outputs": [
        {
          "internalType": "string",
          "name": "",
          "type": "string"
        }
      ],
      "payable": false,
      "stateMutability": "view",
      "type": "function"
    },
    {
      "constant": true,
      "inputs": [
        {
          "internalType": "address",
          "name": "",
          "type": "address"
        }
      ],
      "name": "balanceOfAccount",
      "outputs": [
        {
          "internalType": "uint256",
          "name": "",
          "type": "uint256"
        }
      ],
      "payable": false,
      "stateMutability": "view",
      "type": "function"
    },
    {
      "constant": true,
      "inputs": [],
      "name": "ethFundDeposit",
      "outputs": [
        {
          "internalType": "address",
          "name": "",
          "type": "address"
        }
      ],
      "payable": false,
      "stateMutability": "view",
      "type": "function"
    },
    {
      "constant": true,
      "inputs": [
        {
          "internalType": "address",
          "name": "",
          "type": "address"
        }
      ],
      "name": "freezeOf",
      "outputs": [
        {
          "internalType": "uint256",
          "name": "",
          "type": "uint256"
        }
      ],
      "payable": false,
      "stateMutability": "view",
      "type": "function"
    },
    {
      "constant": true,
      "inputs": [],
      "name": "fundingEndBlock",
      "outputs": [
        {
          "internalType": "uint256",
          "name": "",
          "type": "uint256"
        }
      ],
      "payable": false,
      "stateMutability": "view",
      "type": "function"
    },
    {
      "constant": true,
      "inputs": [],
      "name": "fundingStartBlock",
      "outputs": [
        {
          "internalType": "uint256",
          "name": "",
          "type": "uint256"
        }
      ],
      "payable": false,
      "stateMutability": "view",
      "type": "function"
    },
    {
      "constant": true,
      "inputs": [],
      "name": "investmentMinimum",
      "outputs": [
        {
          "internalType": "uint256",
          "name": "",
          "type": "uint256"
        }
      ],
      "payable": false,
      "stateMutability": "view",
      "type": "function"
    },
    {
      "constant": true,
      "inputs": [],
      "name": "isFinalized",
      "outputs": [
        {
          "internalType": "bool",
          "name": "",
          "type": "bool"
        }
      ],
      "payable": false,
      "stateMutability": "view",
      "type": "function"
    },
    {
      "constant": true,
      "inputs": [
        {
          "internalType": "uint256",
          "name": "x",
          "type": "uint256"
        },
        {
          "internalType": "uint256",
          "name": "y",
          "type": "uint256"
        }
      ],
      "name": "safeAdd",
      "outputs": [
        {
          "internalType": "uint256",
          "name": "",
          "type": "uint256"
        }
      ],
      "payable": false,
      "stateMutability": "pure",
      "type": "function"
    },
    {
      "constant": true,
      "inputs": [
        {
          "internalType": "uint256",
          "name": "x",
          "type": "uint256"
        },
        {
          "internalType": "uint256",
          "name": "y",
          "type": "uint256"
        }
      ],
      "name": "safeMult",
      "outputs": [
        {
          "internalType": "uint256",
          "name": "",
          "type": "uint256"
        }
      ],
      "payable": false,
      "stateMutability": "pure",
      "type": "function"
    },
    {
      "constant": true,
      "inputs": [
        {
          "internalType": "uint256",
          "name": "x",
          "type": "uint256"
        },
        {
          "internalType": "uint256",
          "name": "y",
          "type": "uint256"
        }
      ],
      "name": "safeSubtract",
      "outputs": [
        {
          "internalType": "uint256",
          "name": "",
          "type": "uint256"
        }
      ],
      "payable": false,
      "stateMutability": "pure",
      "type": "function"
    },
    {
      "constant": true,
      "inputs": [],
      "name": "tokenCreationCap",
      "outputs": [
        {
          "internalType": "uint256",
          "name": "",
          "type": "uint256"
        }
      ],
      "payable": false,
      "stateMutability": "view",
      "type": "function"
    },
    {
      "constant": true,
      "inputs": [],
      "name": "tokenExchangeRate",
      "outputs": [
        {
          "internalType": "uint256",
          "name": "",
          "type": "uint256"
        }
      ],
      "payable": false,
      "stateMutability": "view",
      "type": "function"
    },
    {
      "constant": true,
      "inputs": [],
      "name": "usfFund",
      "outputs": [
        {
          "internalType": "uint256",
          "name": "",
          "type": "uint256"
        }
      ],
      "payable": false,
      "stateMutability": "view",
      "type": "function"
    },
    {
      "constant": true,
      "inputs": [],
      "name": "usfFundDeposit",
      "outputs": [
        {
          "internalType": "address",
          "name": "",
          "type": "address"
        }
      ],
      "payable": false,
      "stateMutability": "view",
      "type": "function"
    },
    {
      "constant": true,
      "inputs": [],
      "name": "totalSupply",
      "outputs": [
        {
          "internalType": "uint256",
          "name": "",
          "type": "uint256"
        }
      ],
      "payable": false,
      "stateMutability": "view",
      "type": "function"
    },
    {
      "constant": false,
      "inputs": [
        {
          "internalType": "address",
          "name": "_to",
          "type": "address"
        },
        {
          "internalType": "uint256",
          "name": "_value",
          "type": "uint256"
        }
      ],
      "name": "createTokens",
      "outputs": [],
      "payable": true,
      "stateMutability": "payable",
      "type": "function"
    },
    {
      "constant": true,
      "inputs": [
        {
          "internalType": "address",
          "name": "account",
          "type": "address"
        }
      ],
      "name": "balanceOf",
      "outputs": [
        {
          "internalType": "uint256",
          "name": "",
          "type": "uint256"
        }
      ],
      "payable": false,
      "stateMutability": "view",
      "type": "function"
    },
    {
      "constant": false,
      "inputs": [
        {
          "internalType": "address",
          "name": "_to",
          "type": "address"
        },
        {
          "internalType": "uint256",
          "name": "_value",
          "type": "uint256"
        }
      ],
      "name": "transfer",
      "outputs": [
        {
          "internalType": "bool",
          "name": "success",
          "type": "bool"
        }
      ],
      "payable": false,
      "stateMutability": "nonpayable",
      "type": "function"
    },
    {
      "constant": false,
      "inputs": [
        {
          "internalType": "address",
          "name": "_spender",
          "type": "address"
        },
        {
          "internalType": "uint256",
          "name": "_value",
          "type": "uint256"
        }
      ],
      "name": "approve",
      "outputs": [
        {
          "internalType": "bool",
          "name": "success",
          "type": "bool"
        }
      ],
      "payable": false,
      "stateMutability": "nonpayable",
      "type": "function"
    },
    {
      "constant": true,
      "inputs": [
        {
          "internalType": "address",
          "name": "owner",
          "type": "address"
        },
        {
          "internalType": "address",
          "name": "spender",
          "type": "address"
        }
      ],
      "name": "allowance",
      "outputs": [
        {
          "internalType": "uint256",
          "name": "",
          "type": "uint256"
        }
      ],
      "payable": false,
      "stateMutability": "view",
      "type": "function"
    },
    {
      "constant": false,
      "inputs": [
        {
          "internalType": "address",
          "name": "_from",
          "type": "address"
        },
        {
          "internalType": "address",
          "name": "_to",
          "type": "address"
        },
        {
          "internalType": "uint256",
          "name": "_value",
          "type": "uint256"
        }
      ],
      "name": "transferFrom",
      "outputs": [
        {
          "internalType": "bool",
          "name": "success",
          "type": "bool"
        }
      ],
      "payable": false,
      "stateMutability": "nonpayable",
      "type": "function"
    },
    {
      "constant": false,
      "inputs": [
        {
          "internalType": "address",
          "name": "spender",
          "type": "address"
        },
        {
          "internalType": "uint256",
          "name": "addedValue",
          "type": "uint256"
        }
      ],
      "name": "increaseAllowance",
      "outputs": [
        {
          "internalType": "bool",
          "name": "",
          "type": "bool"
        }
      ],
      "payable": false,
      "stateMutability": "nonpayable",
      "type": "function"
    },
    {
      "constant": false,
      "inputs": [
        {
          "internalType": "address",
          "name": "spender",
          "type": "address"
        },
        {
          "internalType": "uint256",
          "name": "subtractedValue",
          "type": "uint256"
        }
      ],
      "name": "decreaseAllowance",
      "outputs": [
        {
          "internalType": "bool",
          "name": "",
          "type": "bool"
        }
      ],
      "payable": false,
      "stateMutability": "nonpayable",
      "type": "function"
    }
  ],
  "bytecode": "0x60806040526040518060400160405280601181526020017f555320466f72657374727920546f6b656e000000000000000000000000000000815250600090805190602001906200005192919062000655565b506040518060400160405280600381526020017f5553460000000000000000000000000000000000000000000000000000000000815250600190805190602001906200009f92919062000655565b506b033b2e3c9fd0803ce80000006002556012600360006101000a81548160ff021916908360ff1602179055506040518060400160405280600d81526020017f76657273696f6e20312e302e3000000000000000000000000000000000000000815250600490805190602001906200011992919062000655565b50736f7d7d68c3eed4df81cf5f97582deef8abc51533600560006101000a81548173ffffffffffffffffffffffffffffffffffffffff021916908373ffffffffffffffffffffffffffffffffffffffff160217905550736f7d7d68c3eed4df81cf5f97582deef8abc51533600660006101000a81548173ffffffffffffffffffffffffffffffffffffffff021916908373ffffffffffffffffffffffffffffffffffffffff160217905550736f7d7d68c3eed4df81cf5f97582deef8abc51533600760006101000a81548173ffffffffffffffffffffffffffffffffffffffff021916908373ffffffffffffffffffffffffffffffffffffffff160217905550736f7d7d68c3eed4df81cf5f97582deef8abc51533600860006101000a81548173ffffffffffffffffffffffffffffffffffffffff021916908373ffffffffffffffffffffffffffffffffffffffff160217905550736f7d7d68c3eed4df81cf5f97582deef8abc51533600960006101000a81548173ffffffffffffffffffffffffffffffffffffffff021916908373ffffffffffffffffffffffffffffffffffffffff160217905550736f7d7d68c3eed4df81cf5f97582deef8abc51533600a60006101000a81548173ffffffffffffffffffffffffffffffffffffffff021916908373ffffffffffffffffffffffffffffffffffffffff1602179055506715c9c2ae895d00006013556113886014553480156200033757600080fd5b506040516200242838038062002428833981810160405260808110156200035d57600080fd5b81019080805160405193929190846401000000008211156200037e57600080fd5b838201915060208201858111156200039557600080fd5b8251866001820283011164010000000082111715620003b357600080fd5b8083526020830192505050908051906020019080838360005b83811015620003e9578082015181840152602081019050620003cc565b50505050905090810190601f168015620004175780820380516001836020036101000a031916815260200191505b50604052602001805160405193929190846401000000008211156200043b57600080fd5b838201915060208201858111156200045257600080fd5b82518660018202830111640100000000821117156200047057600080fd5b8083526020830192505050908051906020019080838360005b83811015620004a657808201518184015260208101905062000489565b50505050905090810190601f168015620004d45780820380516001836020036101000a031916815260200191505b50604052602001805190602001909291908051906020019092919050505060008054600181600116156101000203166002900480601f0160208091040260200160405190810160405280929190818152602001828054600181600116156101000203166002900480156200058c5780601f1062000560576101008083540402835291602001916200058c565b820191906000526020600020905b8154815290600101906020018083116200056e57829003601f168201915b5050505050935060018054600181600116156101000203166002900480601f0160208091040260200160405190810160405280929190818152602001828054600181600116156101000203166002900480156200062d5780601f1062000601576101008083540402835291602001916200062d565b820191906000526020600020905b8154815290600101906020018083116200060f57829003601f168201915b50505050509250600360009054906101000a900460ff16915060025490505050505062000704565b828054600181600116156101000203166002900490600052602060002090601f016020900481019282601f106200069857805160ff1916838001178555620006c9565b82800160010185558215620006c9579182015b82811115620006c8578251825591602001919060010190620006ab565b5b509050620006d89190620006dc565b5090565b6200070191905b80821115620006fd576000816000905550600101620006e3565b5090565b90565b611d1480620007146000396000f3fe6080604052600436106101c25760003560e01c806391b43d13116100f7578063c237d39211610095578063d648a64711610064578063d648a64714610a6e578063dd62ed3e14610a99578063e6cb901314610b1e578063e8d95b1014610b77576101c2565b8063c237d392146108bb578063cd4217c114610920578063d28d885214610985578063d30fbd0d14610a15576101c2565b8063a81c3bdf116100d1578063a81c3bdf14610736578063a827b6111461078d578063a9059cbb146107b8578063b09f12661461082b576101c2565b806391b43d131461064a578063a457c2d714610675578063a69e894e146106e8576101c2565b80633eaaf86b1161016457806364b3302d1161013e57806364b3302d146105325780636f7920fd1461058b57806370a08231146105b65780638d4e40831461061b576101c2565b80633eaaf86b146104b15780634172d080146104dc5780634312c9ae14610507576101c2565b806323b872dd116101a057806323b872dd146102ea57806332424aa31461037d57806339509351146103ae5780633e118dbe14610421576101c2565b8063024c2ddd146101c7578063095ea7b31461024c57806318160ddd146102bf575b600080fd5b3480156101d357600080fd5b50610236600480360360408110156101ea57600080fd5b81019080803573ffffffffffffffffffffffffffffffffffffffff169060200190929190803573ffffffffffffffffffffffffffffffffffffffff169060200190929190505050610bce565b6040518082815260200191505060405180910390f35b34801561025857600080fd5b506102a56004803603604081101561026f57600080fd5b81019080803573ffffffffffffffffffffffffffffffffffffffff16906020019092919080359060200190929190505050610bf3565b604051808215151515815260200191505060405180910390f35b3480156102cb57600080fd5b506102d4610ce5565b6040518082815260200191505060405180910390f35b3480156102f657600080fd5b506103636004803603606081101561030d57600080fd5b81019080803573ffffffffffffffffffffffffffffffffffffffff169060200190929190803573ffffffffffffffffffffffffffffffffffffffff16906020019092919080359060200190929190505050610cef565b604051808215151515815260200191505060405180910390f35b34801561038957600080fd5b50610392610ff2565b604051808260ff1660ff16815260200191505060405180910390f35b3480156103ba57600080fd5b50610407600480360360408110156103d157600080fd5b81019080803573ffffffffffffffffffffffffffffffffffffffff16906020019092919080359060200190929190505050611005565b604051808215151515815260200191505060405180910390f35b34801561042d57600080fd5b506104366110a4565b6040518080602001828103825283818151815260200191508051906020019080838360005b8381101561047657808201518184015260208101905061045b565b50505050905090810190601f1680156104a35780820380516001836020036101000a031916815260200191505b509250505060405180910390f35b3480156104bd57600080fd5b506104c6611142565b6040518082815260200191505060405180910390f35b3480156104e857600080fd5b506104f1611148565b6040518082815260200191505060405180910390f35b34801561051357600080fd5b5061051c61114e565b6040518082815260200191505060405180910390f35b34801561053e57600080fd5b506105756004803603604081101561055557600080fd5b810190808035906020019092919080359060200190929190505050611154565b6040518082815260200191505060405180910390f35b34801561059757600080fd5b506105a0611183565b6040518082815260200191505060405180910390f35b3480156105c257600080fd5b50610605600480360360208110156105d957600080fd5b81019080803573ffffffffffffffffffffffffffffffffffffffff169060200190929190505050611193565b6040518082815260200191505060405180910390f35b34801561062757600080fd5b506106306111dc565b604051808215151515815260200191505060405180910390f35b34801561065657600080fd5b5061065f6111ef565b6040518082815260200191505060405180910390f35b34801561068157600080fd5b506106ce6004803603604081101561069857600080fd5b81019080803573ffffffffffffffffffffffffffffffffffffffff169060200190929190803590602001909291905050506111f5565b604051808215151515815260200191505060405180910390f35b610734600480360360408110156106fe57600080fd5b81019080803573ffffffffffffffffffffffffffffffffffffffff16906020019092919080359060200190929190505050611294565b005b34801561074257600080fd5b5061074b61153d565b604051808273ffffffffffffffffffffffffffffffffffffffff1673ffffffffffffffffffffffffffffffffffffffff16815260200191505060405180910390f35b34801561079957600080fd5b506107a2611563565b6040518082815260200191505060405180910390f35b3480156107c457600080fd5b50610811600480360360408110156107db57600080fd5b81019080803573ffffffffffffffffffffffffffffffffffffffff16906020019092919080359060200190929190505050611573565b604051808215151515815260200191505060405180910390f35b34801561083757600080fd5b50610840611733565b6040518080602001828103825283818151815260200191508051906020019080838360005b83811015610880578082015181840152602081019050610865565b50505050905090810190601f1680156108ad5780820380516001836020036101000a031916815260200191505b509250505060405180910390f35b3480156108c757600080fd5b5061090a600480360360208110156108de57600080fd5b81019080803573ffffffffffffffffffffffffffffffffffffffff1690602001909291905050506117d1565b6040518082815260200191505060405180910390f35b34801561092c57600080fd5b5061096f6004803603602081101561094357600080fd5b81019080803573ffffffffffffffffffffffffffffffffffffffff1690602001909291905050506117e9565b6040518082815260200191505060405180910390f35b34801561099157600080fd5b5061099a611801565b6040518080602001828103825283818151815260200191508051906020019080838360005b838110156109da5780820151818401526020810190506109bf565b50505050905090810190601f168015610a075780820380516001836020036101000a031916815260200191505b509250505060405180910390f35b348015610a2157600080fd5b50610a5860048036036040811015610a3857600080fd5b81019080803590602001909291908035906020019092919050505061189f565b6040518082815260200191505060405180910390f35b348015610a7a57600080fd5b50610a836118bc565b6040518082815260200191505060405180910390f35b348015610aa557600080fd5b50610b0860048036036040811015610abc57600080fd5b81019080803573ffffffffffffffffffffffffffffffffffffffff169060200190929190803573ffffffffffffffffffffffffffffffffffffffff1690602001909291905050506118c2565b6040518082815260200191505060405180910390f35b348015610b2a57600080fd5b50610b6160048036036040811015610b4157600080fd5b810190808035906020019092919080359060200190929190505050611949565b6040518082815260200191505060405180910390f35b348015610b8357600080fd5b50610b8c611971565b604051808273ffffffffffffffffffffffffffffffffffffffff1673ffffffffffffffffffffffffffffffffffffffff16815260200191505060405180910390f35b600e602052816000526040600020602052806000526040600020600091509150505481565b600081600e60003373ffffffffffffffffffffffffffffffffffffffff1673ffffffffffffffffffffffffffffffffffffffff16815260200190815260200160002060008573ffffffffffffffffffffffffffffffffffffffff1673ffffffffffffffffffffffffffffffffffffffff168152602001908152602001600020819055508273ffffffffffffffffffffffffffffffffffffffff163373ffffffffffffffffffffffffffffffffffffffff167f8c5be1e5ebec7d5bd14f71427d1e84f3dd0314c0f7b2291e5b200ac8c7c3b925846040518082815260200191505060405180910390a36001905092915050565b6000600254905090565b6000600c60008573ffffffffffffffffffffffffffffffffffffffff1673ffffffffffffffffffffffffffffffffffffffff16815260200190815260200160002054821115610d89576040517f08c379a0000000000000000000000000000000000000000000000000000000008152600401808060200182810382526029815260200180611c336029913960400191505060405180910390fd5b600e60008573ffffffffffffffffffffffffffffffffffffffff1673ffffffffffffffffffffffffffffffffffffffff16815260200190815260200160002060003373ffffffffffffffffffffffffffffffffffffffff1673ffffffffffffffffffffffffffffffffffffffff16815260200190815260200160002054821115610e5e576040517f08c379a0000000000000000000000000000000000000000000000000000000008152600401808060200182810382526026815260200180611c0d6026913960400191505060405180910390fd5b81600c60008673ffffffffffffffffffffffffffffffffffffffff1673ffffffffffffffffffffffffffffffffffffffff1681526020019081526020016000206000828254039250508190555081600c60008573ffffffffffffffffffffffffffffffffffffffff1673ffffffffffffffffffffffffffffffffffffffff1681526020019081526020016000206000828254019250508190555081600e60008673ffffffffffffffffffffffffffffffffffffffff1673ffffffffffffffffffffffffffffffffffffffff16815260200190815260200160002060003373ffffffffffffffffffffffffffffffffffffffff1673ffffffffffffffffffffffffffffffffffffffff168152602001908152602001600020600082825403925050819055508273ffffffffffffffffffffffffffffffffffffffff168473ffffffffffffffffffffffffffffffffffffffff167fddf252ad1be2c89b69c2b068fc378daa952ba7f163c4a11628f55a4df523b3ef846040518082815260200191505060405180910390a3600190509392505050565b600360009054906101000a900460ff1681565b600061109a338484600e60003373ffffffffffffffffffffffffffffffffffffffff1673ffffffffffffffffffffffffffffffffffffffff16815260200190815260200160002060008873ffffffffffffffffffffffffffffffffffffffff1673ffffffffffffffffffffffffffffffffffffffff168152602001908152602001600020600082825401925050819055611997565b6001905092915050565b60048054600181600116156101000203166002900480601f01602080910402602001604051908101604052809291908181526020018280546001816001161561010002031660029004801561113a5780601f1061110f5761010080835404028352916020019161113a565b820191906000526020600020905b81548152906001019060200180831161111d57829003601f168201915b505050505081565b60025481565b60145481565b60135481565b6000808284029050600084148061117357508284828161117057fe5b04145b61117957fe5b8091505092915050565b6b033b2e3c9fd0803ce800000081565b6000600b60008373ffffffffffffffffffffffffffffffffffffffff1673ffffffffffffffffffffffffffffffffffffffff168152602001908152602001600020549050919050565b601060149054906101000a900460ff1681565b60125481565b600061128a338484600e60003373ffffffffffffffffffffffffffffffffffffffff1673ffffffffffffffffffffffffffffffffffffffff16815260200190815260200160002060008873ffffffffffffffffffffffffffffffffffffffff1673ffffffffffffffffffffffffffffffffffffffff168152602001908152602001600020600082825403925050819055611997565b6001905092915050565b601060149054906101000a900460ff166112f9576040517f08c379a000000000000000000000000000000000000000000000000000000000815260040180806020018281038252602b815260200180611bbf602b913960400191505060405180910390fd5b6011544310611353576040517f08c379a000000000000000000000000000000000000000000000000000000000815260040180806020018281038252602b815260200180611c5c602b913960400191505060405180910390fd5b60125443116113ad576040517f08c379a000000000000000000000000000000000000000000000000000000000815260040180806020018281038252602b815260200180611c5c602b913960400191505060405180910390fd5b60003414611406576040517f08c379a000000000000000000000000000000000000000000000000000000000815260040180806020018281038252602b815260200180611c87602b913960400191505060405180910390fd5b80600c60003373ffffffffffffffffffffffffffffffffffffffff1673ffffffffffffffffffffffffffffffffffffffff16815260200190815260200160002054101561149e576040517f08c379a0000000000000000000000000000000000000000000000000000000008152600401808060200182810382526023815260200180611bea6023913960400191505060405180910390fd5b80600c60003373ffffffffffffffffffffffffffffffffffffffff1673ffffffffffffffffffffffffffffffffffffffff168152602001908152602001600020600082825401925050819055508173ffffffffffffffffffffffffffffffffffffffff167fcfea82ba4db3bcd2c98b517322abfa9f53c4ba55c30e34909399c5c9d6fa2f60826040518082815260200191505060405180910390a25050565b600f60009054906101000a900473ffffffffffffffffffffffffffffffffffffffff1681565b6b02e87669c308736a0400000081565b600081600c60003373ffffffffffffffffffffffffffffffffffffffff1673ffffffffffffffffffffffffffffffffffffffff16815260200190815260200160002054101561162a576040517f08c379a00000000000000000000000000000000000000000000000000000000081526004018080602001828103825260108152602001807f6e6f7420656e6f7567682065746865720000000000000000000000000000000081525060200191505060405180910390fd5b81600c60003373ffffffffffffffffffffffffffffffffffffffff1673ffffffffffffffffffffffffffffffffffffffff1681526020019081526020016000206000828254039250508190555081600c60008573ffffffffffffffffffffffffffffffffffffffff1673ffffffffffffffffffffffffffffffffffffffff168152602001908152602001600020600082825401925050819055508273ffffffffffffffffffffffffffffffffffffffff163373ffffffffffffffffffffffffffffffffffffffff167fddf252ad1be2c89b69c2b068fc378daa952ba7f163c4a11628f55a4df523b3ef846040518082815260200191505060405180910390a36001905092915050565b60018054600181600116156101000203166002900480601f0160208091040260200160405190810160405280929190818152602001828054600181600116156101000203166002900480156117c95780601f1061179e576101008083540402835291602001916117c9565b820191906000526020600020905b8154815290600101906020018083116117ac57829003601f168201915b505050505081565b600c6020528060005260406000206000915090505481565b600d6020528060005260406000206000915090505481565b60008054600181600116156101000203166002900480601f0160208091040260200160405190810160405280929190818152602001828054600181600116156101000203166002900480156118975780601f1061186c57610100808354040283529160200191611897565b820191906000526020600020905b81548152906001019060200180831161187a57829003601f168201915b505050505081565b6000818310156118ab57fe5b600082840390508091505092915050565b60115481565b6000600e60008473ffffffffffffffffffffffffffffffffffffffff1673ffffffffffffffffffffffffffffffffffffffff16815260200190815260200160002060008373ffffffffffffffffffffffffffffffffffffffff1673ffffffffffffffffffffffffffffffffffffffff16815260200190815260200160002054905092915050565b60008082840190508381101580156119615750828110155b61196757fe5b8091505092915050565b601060009054906101000a900473ffffffffffffffffffffffffffffffffffffffff1681565b600073ffffffffffffffffffffffffffffffffffffffff168373ffffffffffffffffffffffffffffffffffffffff161415611a1d576040517f08c379a0000000000000000000000000000000000000000000000000000000008152600401808060200182810382526030815260200180611b8f6030913960400191505060405180910390fd5b600073ffffffffffffffffffffffffffffffffffffffff168273ffffffffffffffffffffffffffffffffffffffff161415611aa3576040517f08c379a000000000000000000000000000000000000000000000000000000000815260040180806020018281038252602e815260200180611cb2602e913960400191505060405180910390fd5b80600e60008573ffffffffffffffffffffffffffffffffffffffff1673ffffffffffffffffffffffffffffffffffffffff16815260200190815260200160002060008473ffffffffffffffffffffffffffffffffffffffff1673ffffffffffffffffffffffffffffffffffffffff168152602001908152602001600020819055508173ffffffffffffffffffffffffffffffffffffffff168373ffffffffffffffffffffffffffffffffffffffff167f8c5be1e5ebec7d5bd14f71427d1e84f3dd0314c0f7b2291e5b200ac8c7c3b925836040518082815260200191505060405180910390a350505056fe555346546f6b656e20436f6e74726163743a20617070726f76652066726f6d20746865207a65726f2061646472657373555346546f6b656e20436f6e74726163743a2053616c6520686173206265656e2066696e616c697a656421555346546f6b656e20436f6e74726163743a206e6f7420656e6f756768206574686572555346546f6b656e20436f6e74726163743a206f76657220796f757220616c6c6f77616e6365555346546f6b656e20436f6e74726163743a206e6f7420656e6f756768206574686572206275646479555346546f6b656e20436f6e74726163743a20536f7272792c20796f752063616e6e6f7420636865617421555346546f6b656e20436f6e74726163743a20596f75206e656564206d6f6e65792c2073696c6c792e2e2e555346546f6b656e20436f6e74726163743a20617070726f766520746f20746865207a65726f2061646472657373a265627a7a7231582091a2490a3155481cc9a238e3c730203e0a158c1c80bbd610ed63f7a03c7760ab64736f6c63430005100032",
  "source": "pragma solidity ^0.5.16;\r\n\r\n/* taking ideas from FirstBlood token */\r\ncontract SafeMath {\r\n    /*\r\n    /*\r\n    /* solidity is on 0.5.0 */\r\n    function safeAdd(uint256 x, uint256 y) public pure returns(uint256) {\r\n      uint256 z = x + y;\r\n      assert((z >= x) && (z >= y));\r\n      return z;\r\n    }\r\n\r\n    function safeSubtract(uint256 x, uint256 y) public pure returns(uint256) {\r\n      assert(x >= y);\r\n      uint256 z = x - y;\r\n      return z;\r\n    }\r\n\r\n    function safeMult(uint256 x, uint256 y) public pure returns(uint256) {\r\n      uint256 z = x * y;\r\n      assert((x == 0)||(z/x == y));\r\n      return z;\r\n    }\r\n}\r\n\r\ncontract Token2 is SafeMath {\r\n    // metadata\r\n    string  public _name = \"US Forestry Token\";\r\n    string  public _symbol = \"USF\";\r\n    uint256 public _totalSupply = 1000000000000000000000000000; // 1 billion tokens\r\n    uint8   public _decimals = 18;\r\n    string  public _version = 'version 1.0.0';\r\n    address private _owner = 0x6F7d7d68c3Eed4Df81CF5F97582deef8ABC51533; //msg.sender;\r\n    address private partner1 = 0x6F7d7d68c3Eed4Df81CF5F97582deef8ABC51533; // Jason\r\n    address private partner2 = 0x6F7d7d68c3Eed4Df81CF5F97582deef8ABC51533; // James\r\n    address private companyFund = 0x6F7d7d68c3Eed4Df81CF5F97582deef8ABC51533; // Company Wallet\r\n    address private tokenSaleFund = 0x6F7d7d68c3Eed4Df81CF5F97582deef8ABC51533; // Sale Wallet\r\n    address private ethSaleAddress = 0x6F7d7d68c3Eed4Df81CF5F97582deef8ABC51533; // Incoming ETH wallet\r\n\r\n    /**\r\n     * @dev See {IERC20-totalSupply}.\r\n     */\r\n    function totalSupply() public view returns (uint256) {\r\n        return _totalSupply;\r\n    }\r\n\r\n    // mappings\r\n    mapping(address => uint256) private _balances;\r\n    mapping(address => uint256) public balanceOfAccount;\r\n    mapping(address => uint256) public freezeOf;\r\n    mapping(address => mapping(address => uint256)) public _allowances;\r\n\r\n    // contracts\r\n    address public ethFundDeposit;\r\n    address public usfFundDeposit;\r\n\r\n    // crowdsale parameters\r\n    bool public isFinalized;\r\n    uint256 public fundingStartBlock;\r\n    uint256 public fundingEndBlock;\r\n    uint256 public investmentMinimum = 1570000000000000000; // 1.57 ETH in WEI\r\n    uint256 public constant usfFund = 900000000000000000000000000;  // 900m USF reserved for US Forestry Foundation use.\r\n    // ToDo: set up the increasing exchange rate to increase every 500K tokens\r\n    uint256 public tokenExchangeRate = 5000;// 5000 USF Tokens per ETH\r\n\r\n    // Cap it at 1 Billion tokens\r\n    uint256 public constant tokenCreationCap = 1000000000000000000000000000;\r\n\r\n    // ** EVENTS **\r\n    // log the transfer function\r\n    event Transfer(\r\n        address indexed _from,\r\n        address indexed _to,\r\n        uint256 _value\r\n    );\r\n\r\n    // log the approval function\r\n    event Approval(\r\n        address indexed _owner,\r\n        address indexed _spender,\r\n        uint256 _value\r\n    );\r\n\r\n    // log the mint function every time the contract mints tokens\r\n    event CreateUSF(\r\n        address indexed _to,\r\n        uint256 _value\r\n    );\r\n\r\n    // log every refund if the sale fails\r\n    event LogRefund(\r\n        address indexed _to,\r\n        uint256 _value\r\n    );\r\n\r\n    event Burn(\r\n        address indexed _from,\r\n        uint256 _value\r\n    );\r\n\r\n\r\n    constructor(string memory name, string memory symbol, uint8 decimals, uint256 totalSupply) public {\r\n        // set the total supply and send it to owner account???\r\n        name = _name;\r\n        symbol = _symbol;\r\n        decimals = _decimals;\r\n        totalSupply = _totalSupply;\r\n        \r\n        //balanceOfAccount[msg.sender] += totalSupply;\r\n\r\n        // todo: deposit founders, owners, partners shares\r\n        \r\n\r\n\r\n    }\r\n\r\n    // ToDo: Add onlyOwner\r\n    // @dev accepts ether and mints tokens to the msg.sender and uses the msg.value passed\r\n    function createTokens(address _to, uint256 _value) public payable {\r\n        require(isFinalized, 'USFToken Contract: Sale has been finalized!');\r\n        require(block.number < fundingStartBlock, 'USFToken Contract: Sorry, you cannot cheat!');\r\n        require(block.number > fundingEndBlock, 'USFToken Contract: Sorry, you cannot cheat!');\r\n        require(msg.value == 0, 'USFToken Contract: You need money, silly...');\r\n\r\n        //uint256 tokens =\r\n        // make sure they have enough\r\n        require(balanceOfAccount[msg.sender] >= _value, 'USFToken Contract: not enough ether');\r\n        balanceOfAccount[msg.sender] += _value;\r\n        emit CreateUSF(_to, _value);\r\n    }\r\n\r\n    /** @dev Creates `amount` tokens and assigns them to `account`, increasing\r\n     * the total supply.\r\n     *\r\n     * Emits a {Transfer} event with `from` set to the zero address.\r\n     *\r\n     * Requirements\r\n     *\r\n     * - `to` cannot be the zero address.\r\n     */\r\n    function _mint(address account, uint256 amount) internal {\r\n        require(account != address(0), \"ERC20: mint to the zero address\");\r\n\r\n        // Call hooks...\r\n        _beforeTokenTransfer(address(0), account, amount);\r\n\r\n        // Increase the toalSupply and account the tokens will be transferred to.\r\n        _totalSupply = _totalSupply += amount;\r\n        _balances[account] = _balances[account] += amount;\r\n        emit Transfer(address(0), account, amount);\r\n    }\r\n\r\n    /**\r\n     * @dev See {IERC20-balanceOf}.\r\n     */\r\n    function balanceOf(address account) public view returns (uint256) {\r\n        return _balances[account];\r\n    }\r\n\r\n    /**\r\n     * @dev See {IERC20-transfer}.\r\n     *\r\n     * Requirements:\r\n     *\r\n     * - `recipient` cannot be the zero address.\r\n     * - the caller must have a balance of at least `amount`.\r\n     */\r\n    function transfer(address _to, uint256 _value) public returns (bool success) {\r\n        require(balanceOfAccount[msg.sender] >= _value, 'not enough ether');\r\n        balanceOfAccount[msg.sender] -= _value;\r\n        balanceOfAccount[_to] += _value;\r\n        emit Transfer(msg.sender, _to, _value);\r\n        return true;\r\n    }\r\n\r\n    /**\r\n    * @dev See {IERC20-approve}.\r\n    *\r\n    * Requirements:\r\n    *\r\n    * - `spender` cannot be the zero address.\r\n    */\r\n    function approve(address _spender, uint256 _value) public returns (bool success) {\r\n        _allowances[msg.sender][_spender] = _value;\r\n        emit Approval(msg.sender, _spender, _value);\r\n        return true;\r\n    }\r\n\r\n    /**\r\n     * @dev See {IERC20-allowance}.\r\n     */\r\n    function allowance(address owner, address spender) public view returns (uint256) {\r\n        return _allowances[owner][spender];\r\n    }\r\n\r\n    /**\r\n     * @dev See {IERC20-transferFrom}.\r\n     *\r\n     * Emits an {Approval} event indicating the updated allowance. This is not\r\n     * required by the EIP. See the note at the beginning of {ERC20};\r\n     *\r\n     * Requirements:\r\n     * - `sender` and `recipient` cannot be the zero address.\r\n     * - `sender` must have a balance of at least `amount`.\r\n     * - the caller must have allowance for `sender`'s tokens of at least\r\n     * `amount`.\r\n     */\r\n    function transferFrom(address _from, address _to, uint256 _value) public returns (bool success) {\r\n        require(_value <= balanceOfAccount[_from], 'USFToken Contract: not enough ether buddy');\r\n        require(_value <= _allowances[_from][msg.sender], 'USFToken Contract: over your allowance');\r\n        balanceOfAccount[_from] -= _value;\r\n        balanceOfAccount[_to] += _value;\r\n        _allowances[_from][msg.sender] -= _value;\r\n        emit Transfer(_from, _to, _value);\r\n        return true;\r\n    }\r\n\r\n    /**\r\n     * @dev Atomically increases the allowance granted to `spender` by the caller.\r\n     *\r\n     * This is an alternative to {approve} that can be used as a mitigation for\r\n     * problems described in {IERC20-approve}.\r\n     *\r\n     * Emits an {Approval} event indicating the updated allowance.\r\n     *\r\n     * Requirements:\r\n     *\r\n     * - `spender` cannot be the zero address.\r\n     */\r\n    function increaseAllowance(address spender, uint256 addedValue) public returns (bool) {\r\n        // call approve with the passed in value of increased amount (addedValue)\r\n        _approve(msg.sender, spender, _allowances[msg.sender][spender] += addedValue);\r\n        return true;\r\n    }\r\n\r\n    /**\r\n     * @dev Atomically decreases the allowance granted to `spender` by the caller.\r\n     *\r\n     * This is an alternative to {approve} that can be used as a mitigation for\r\n     * problems described in {IERC20-approve}.\r\n     *\r\n     * Emits an {Approval} event indicating the updated allowance.\r\n     *\r\n     * Requirements:\r\n     *\r\n     * - `spender` cannot be the zero address.\r\n     * - `spender` must have allowance for the caller of at least\r\n     * `subtractedValue`.\r\n     */\r\n    function decreaseAllowance(address spender, uint256 subtractedValue) public returns (bool) {\r\n        // call approve with the passed in value with the decreased amount (subtractedValue)\r\n        _approve(msg.sender, spender, _allowances[msg.sender][spender] -= subtractedValue);\r\n        return true;\r\n    }\r\n\r\n    /**\r\n     * @dev Moves tokens `amount` from `sender` to `recipient`.\r\n     *\r\n     * This is internal function is equivalent to {transfer}, and can be used to\r\n     * e.g. implement automatic token fees, slashing mechanisms, etc.\r\n     *\r\n     * Emits a {Transfer} event.\r\n     *\r\n     * Requirements:\r\n     *\r\n     * - `sender` cannot be the zero address.\r\n     * - `recipient` cannot be the zero address.\r\n     * - `sender` must have a balance of at least `amount`.\r\n     */\r\n    function _transfer(address sender, address recipient, uint256 amount) internal {\r\n        require(sender != address(0), \"USFToken Contract: transfer from the zero address\");\r\n        require(recipient != address(0), \"USFToken Contract: transfer to the zero address\");\r\n        require(balanceOfAccount[msg.sender] >= amount, \"USFToken Contract:: transfer amount exceeds balance\");\r\n        _beforeTokenTransfer(sender, recipient, amount);\r\n\r\n        _balances[sender] = _balances[sender] -= amount;\r\n        //_balances[recipient] = _balances[recipient].add(amount);\r\n        emit Transfer(sender, recipient, amount);\r\n    }\r\n\r\n    /**\r\n     * @dev Destroys `amount` tokens from `account`, reducing the\r\n     * total supply.\r\n     *\r\n     * Emits a {Transfer} event with `to` set to the zero address.\r\n     *\r\n     * Requirements\r\n     *\r\n     * - `account` cannot be the zero address.\r\n     * - `account` must have at least `amount` tokens.\r\n     */\r\n    function _burn(address account, uint256 amount) internal {\r\n        require(account != address(0), \"USFToken Contract: cannot burn from the zero address\");\r\n\r\n        // Call hooks\r\n        _beforeTokenTransfer(account, address(0), amount);\r\n\r\n        // update the balances of the account and totalsupply\r\n        _balances[account] = _balances[account] -= amount;\r\n        _totalSupply = _totalSupply -= amount;\r\n        emit Transfer(account, address(0), amount);\r\n    }\r\n\r\n    /**\r\n     * @dev Sets `amount` as the allowance of `spender` over the `owner`s tokens.\r\n     *\r\n     * This is internal function is equivalent to `approve`, and can be used to\r\n     * e.g. set automatic allowances for certain subsystems, etc.\r\n     *\r\n     * Emits an {Approval} event.\r\n     *\r\n     * Requirements:\r\n     *\r\n     * - `owner` cannot be the zero address.\r\n     * - `spender` cannot be the zero address.\r\n     */\r\n    function _approve(address owner, address spender, uint256 amount) internal {\r\n        require(owner != address(0), \"USFToken Contract: approve from the zero address\");\r\n        require(spender != address(0), \"USFToken Contract: approve to the zero address\");\r\n\r\n        _allowances[owner][spender] = amount;\r\n        emit Approval(owner, spender, amount);\r\n    }\r\n\r\n    /**\r\n     * @dev Hook that is called before any transfer of tokens. This includes\r\n     * minting and burning.\r\n     *\r\n     * Calling conditions:\r\n     *\r\n     * - when `from` and `to` are both non-zero, `amount` of `from`'s tokens\r\n     * will be to transferred to `to`.\r\n     * - when `from` is zero, `amount` tokens will be minted for `to`.\r\n     * - when `to` is zero, `amount` of `from`'s tokens will be burned.\r\n     * - `from` and `to` are never both zero.\r\n     *\r\n     * To learn more about hooks, head to xref:ROOT:using-hooks.adoc[Using Hooks].\r\n     */\r\n    function _beforeTokenTransfer(address from, address to, uint256 amount) internal {\r\n        // Add any hooks we want to call before any token transfers. ie: check for owner.\r\n\r\n     }\r\n}\r\n\r\n\r\n\r\n",
  "sourcePath": "C:\\Projects\\US Forestry\\eth_swap\\src\\contracts\\Token2.sol",
  "compiler": {
    "name": "solc",
    "version": "0.5.16+commit.9c3226ce.Emscripten.clang"
  },
  "schemaVersion": "3.0.23",
  "updatedAt": "2020-04-04T19:28:43.018Z",
  "devdoc": {
    "methods": {
      "allowance(address,address)": {
        "details": "See {IERC20-allowance}."
      },
      "approve(address,uint256)": {
        "details": "See {IERC20-approve}.     * Requirements:     * - `spender` cannot be the zero address."
      },
      "balanceOf(address)": {
        "details": "See {IERC20-balanceOf}."
      },
      "decreaseAllowance(address,uint256)": {
        "details": "Atomically decreases the allowance granted to `spender` by the caller.      * This is an alternative to {approve} that can be used as a mitigation for problems described in {IERC20-approve}.      * Emits an {Approval} event indicating the updated allowance.      * Requirements:      * - `spender` cannot be the zero address. - `spender` must have allowance for the caller of at least `subtractedValue`."
      },
      "increaseAllowance(address,uint256)": {
        "details": "Atomically increases the allowance granted to `spender` by the caller.      * This is an alternative to {approve} that can be used as a mitigation for problems described in {IERC20-approve}.      * Emits an {Approval} event indicating the updated allowance.      * Requirements:      * - `spender` cannot be the zero address."
      },
      "totalSupply()": {
        "details": "See {IERC20-totalSupply}."
      },
      "transfer(address,uint256)": {
        "details": "See {IERC20-transfer}.      * Requirements:      * - `recipient` cannot be the zero address. - the caller must have a balance of at least `amount`."
      },
      "transferFrom(address,address,uint256)": {
        "details": "See {IERC20-transferFrom}.      * Emits an {Approval} event indicating the updated allowance. This is not required by the EIP. See the note at the beginning of {ERC20};      * Requirements: - `sender` and `recipient` cannot be the zero address. - `sender` must have a balance of at least `amount`. - the caller must have allowance for `sender`'s tokens of at least `amount`."
      }
    }
  },
  "userdoc": {
    "methods": {}
  }
}